:020000040800F2
:1000000050070020850200083D2D0008AF2B000896
:100010003B2D0008651B0008C92F000800000000E8
:10002000000000000000000000000000412D00085A
:10003000751B0008000000003F2D0008432D00083C
:100040009F0200089F0200089F0200089F0200080C
:100050009F0200089F0200089F0200089F020008FC
:100060009F0200089F0200089F0200089F020008EC
:100070009F0200089F020008691B00089F020008F9
:100080009F0200089F0200089F0200089F020008CC
:100090009F0200089F0200089F0200089F020008BC
:1000A0009F0200089F0200089F0200089F020008AC
:1000B000A92D00089F0200089F0200089F02000867
:1000C0009F0200089F0200089F0200089F0200088C
:1000D0009F0200089F0200089F0200089F0200087C
:1000E0009F0200089F0200089F0200089F0200086C
:1000F0009F0200089F0200089F0200089F0200085C
:100100009F0200089F0200089F0200089F0200084B
:100110009F0200089F0200089F0200089F0200083B
:100120009F0200089F0200089F0200089F0200082B
:1001300000F002F800F096F80AA090E8000C824463
:100140008344AAF10107DA4501D100F08BF8AFF240
:10015000090EBAE80F0013F0010F18BFFB1A43F0A5
:1001600001031847C8300000E8300000103A24BFEF
:1001700078C878C1FAD8520724BF30C830C144BF0C
:1001800004680C607047000000230024002500264E
:10019000103A28BF78C1FBD8520728BF30C148BFEA
:1001A0000B6070476E2900F04182702900F0838354
:1001B000662902F0B587652902F0B287672902F047
:1001C000AF876129AFF3008003681B0A28BF41F0A5
:1001D0008001692900F0EE81642900F0EB81752926
:1001E00000F0E8816F2900F01083782900F04F8338
:1001F000E92900F0AB82E42900F0A882F52900F09B
:10020000A582EF2900F00D83F82900F04E830368E2
:10021000DB0928BF41F08001632900F0F8867329CB
:1002200000F0FD86E32900F00887F32900F00D8730
:10023000002070471FB59DE8030000F023F900F08F
:1002400081FF04000020002102F054FF401C606088
:100250000020002102F038FFE06000F0E5F81FBD4B
:1002600010B510BD00F041FF1146FFF7E3FF02F0AB
:100270001AFF01F01DF803B4FFF7F2FF03BC00F012
:100280002DFF00000948804709480047FEE7FEE7C8
:10029000FEE7FEE7FEE7FEE7FEE7FEE7FEE7FEE736
:1002A00004480549054A064B70470000A52D000883
:1002B00031010008500100205007002050030020A9
:1002C0005003002070B5064600F0C0F8056806F13E
:1002D0000B0020F00704B4429CBF002070BD2B46E9
:1002E0006A68BAB11068A04210D304F108018842CC
:1002F0003CBF5068586007D35168101941601168BD
:10030000091B016058601460101D70BD13465268CF
:10031000002AE7D12146284600F0A0F80028DED1C7
:1003200070BD70B50446051F00F090F80068002C01
:1003300014BF446870BD002C18BFAC423CBF2046BF
:100340006468F8D301680A18AA4218BF456003D14F
:100350002A6805461144016028684119A1421CBF62
:100360006C6070BD6168696021680844286070BD78
:100370001CB50C46064B7B4469460090204600F0B5
:100380006EF904460020694600F07CF920461CBD49
:100390000B03000010B5431C02E010F8011B71B103
:1003A0008107FAD14FF0013202C88C1A8C4314EA4B
:1003B000C211F9D0C01A0A0603D0C01E10BDC01A5F
:1003C00010BD0A0401D0801E10BD0902FCD0401EE1
:1003D00010BD4FF0000200B51346944696462039F2
:1003E00022BFA0E80C50A0E80C50B1F12001BFF4EE
:1003F000F7AF090728BFA0E80C5048BF0CC05DF854
:1004000004EB890028BF40F8042B08BF704748BFA1
:1004100020F8022B11F0804F18BF00F8012B704715
:10042000704770477047000070B5064C7C44064D1D
:100430007D4403E0206820448047241DAC42F9D16C
:1004400070BD0000482F0000482F00000048704792
:10045000F4000020704770477047704738B5044675
:100460000A4600206946AFF30080002808BF38BD67
:1004700002460099204600F0F9FA012038BD01201B
:1004800000F00CBEF8B5AFF30080054600200C4626
:10049000102000BF0646A819A0420DD93246694671
:1004A0000020AFF30080070008BF00F0F7FD0098C0
:1004B000A04218BF0546C419FFF7C8FF05600746EC
:1004C000F01D20F007004619284600F00AF8B44253
:1004D00008BFF8BDA21B31463868BDE8F84000F0FF
:1004E000C5BA00210160C0E90110704710207047B3
:1004F00070B5044685690068C10601D5302600E064
:100500002026C00707D070BDD4E9012130469047AE
:10051000206A401C20626D1EF6D570BD70B5044681
:1005200085690078C00707D170BDD4E9012120207A
:100530009047206A401C20626D1EF6D570BD096888
:100540004A0501D540B27047C905FCD500B27047D5
:1005500009684A0501D5C0B27047C905FCD580B20B
:10056000704770B50C460546012A05D028788006EC
:1005700000D5EA69002302E0012305E05B1C9342F9
:1005800002D2E05C0028F9D1A869E618C01AA86177
:10059000286A184428622846FFF7AAFF04E0D5E934
:1005A000012114F8010B9047B442F8D32846FFF715
:1005B000B5FF70BD2DE9F04106460024106875298D
:1005C000314616A510D0FFF7BAFF002802DA4042E4
:1005D00013A507E031688A0701D512A502E0490793
:1005E00004D511A5012401E0FFF7B2FF00210A2282
:1005F00006F1240709E0B0FBF2FCB0FBF2F302FBCA
:100600001C00303078541846491C0028F3D123468A
:100610002A463046BDE8F04100F087BA00000000ED
:100620002D0000002B00000020000000116802686F
:10063000006A530501D508700AE0D30501D508808A
:1006400006E0130603D5C217C1E9000200E0086006
:100650000120704701694A1C02610878704700B5A3
:100660008FB0CDE901310021059105497944CDE9EB
:1006700003101146684600F029F90FB000BD0000D4
:10068000E5FFFFFF0A6802F8010B0A6070470000EF
:100690002DE9FF5F15468A460446DFF8AC80F84432
:1006A0000027D8E900103E46CDE9001010E03AF8E6
:1006B00016106A4602A800F0CCFC411C07D0217835
:1006C000890603D5E269391891420DD80744761C92
:1006D0002078800602D5E069B84205DDAE42E6DB4F
:1006E0003AF816000028E2D1A069C01BA06120469C
:1006F000FFF7FEFED8E90010CDE90010002017E05A
:100700003AF818106A4602A800F0A3FCB0F1FF3FC7
:1007100081460BD000250DF1080B05E0D4E901213D
:100720001BF8050090476D1C4D45F7D308F10100FB
:10073000B0428046E4DB206A384420622046FFF75E
:10074000EDFEBDE8FF9F00009A2A00002DE9F04170
:100750008046D21D22F007020025D2E90002F529C9
:1007600015A614D0011E72F1000106DA0023D0EBA9
:10077000030063EB020211A608E0D8F800108B0713
:1007800001D50FA602E0490701D50EA601251146A5
:10079000002408F1240704E000F082F930323A55D1
:1007A000641C50EA0102F7D12B46324621464046EE
:1007B000BDE8F04100F0B9B9000000002D000000D4
:1007C0002B0000002000000030B4002100F12404C0
:1007D00008E002F00705D208303542EA4372DB0830
:1007E0006554491C52EA0305F3D10468002310A2A2
:1007F000250707D5A40600D421B1C46901230DA2A1
:10080000641EC46130BC00F090B910B504462146A6
:100810001068FFF79DFE02462046BDE81040002309
:10082000D2E7D21D22F00701D1E90023CCE7000076
:100830000000000030000000F0B40D4601880905FA
:1008400002D5214C7C4402E01F4C7C440E34002134
:1008500000F1240608E002F00F071209E75D42EA02
:1008600003721B097754491C52EA0307F3D102783B
:100870000023120704D5702D06D009B102231134CC
:100880002246F0BC00F051B901231034F8E770B5EE
:1008900004460D4621461068FFF75AFE02462946D7
:1008A0002046BDE870400023C6E7D21D22F00703B2
:1008B000D3E90023C0E70368126843F02003036014
:1008C0000823C3610023B7E7FC2800002DE9F05F8F
:1008D000894604464FF0000ADFF874B1FB44C0F8C3
:1008E00020A02046E1688847002874D0252806D03B
:1008F000D4E901219047206A401C2062F1E70026DC
:100900005F462046E16888472028054607DB312DF1
:1009100005D2781910F8200C08B10643F1E7B007AA
:1009200001D526F00406C4F81CA00027C4F818A0BE
:100930002A2D09D0284602F0AFFB38B304EB870814
:10094000303DC8F8185019E059F8041B204604EB54
:1009500087029161E1688847012F054618D1E06957
:10096000002820DA26F020061DE0D8F8180000EB59
:10097000800005EB40003038C8F818002046E168D8
:100980008847054602F088FB0028EED1012F0AD0E7
:100990002E2D08D12046E16888477F1C0546022F8E
:1009A00046F02006C4DBA069002803DA404246F086
:1009B0000106A061F00701D026F010066C2D0BD0C7
:1009C000682D09D04C2D39D06A2D35D0742D35D0F5
:1009D0007A2D33D016E038E0E1682F46204688476C
:1009E000B842054609D16C2F26D04FF48060E168EB
:1009F000064320468847054604E06C2F1AD04FF482
:100A0000807006430DB3A5F14100192802D82035A6
:100A100046F400664A462946204626604E46FFF7C1
:100A2000C1FB80B101280BD0F61D26F0070000F1B4
:100A3000080956E74020E4E78020D8E70020D6E701
:100A400006F104094DE7284652E7206ABDE8F09F09
:100A50008C28000010B500F029FBBDE8104000F024
:100A600018BB000000487047EC00002003464068B7
:100A70008C46002818BF88423CBF03464068F8D324
:100A800018681844884207D00CF1030020F00700D2
:100A9000001D411A521A0146081D0A60FFF741BCA9
:100AA00030B5B0F10A024FEA900E71F100034EEA40
:100AB000817EB0EB0E0061EB91014FEA101E4EEA11
:100AC000017E10EB0E0041EB11114FEA102E4EEAA1
:100AD000016E10EB0E0041EB11214FEA104E4EEA71
:100AE000014E10EB0E0041EB1141401841F10001A5
:100AF0004FEAD00040EA41704FEAD10110EB800587
:100B00004FEA810444EA907444EB01046D1944EB0C
:100B10000404521BA3414FF0000348BF0A3200D522
:100B200030BD401C41F1000130BD2DE9F0470D46BC
:100B300099469246044600F124080168880604D5C7
:100B4000E06921F01001216000E00120A84201DDF0
:100B5000471B00E00027A1697A1902EB0900081A77
:100B6000A0612078C00602D42046FFF7C1FC002611
:100B700008E0D4E901211AF806009047206A401CD9
:100B8000761C20624E45F4DB2078C0060AD520464C
:100B9000FFF7AEFC06E0D4E9012130209047206A3F
:100BA000401C2062381EA7F10107F4DC07E0D4E9FD
:100BB000012118F805009047206A401C2062281E79
:100BC000A5F10105F3DC2046FFF7A8FC207800061C
:100BD00002D50220BDE8F0870120FBE770472DE930
:100BE000FF4F0C461E464FF0FF378BB0D2E9000195
:100BF000DDF860800A908A46C1F30A5505B93D4682
:100C0000002108464FF00000BAF1000F00F4400048
:100C100005DA00EB80004FF4400101EA50004FEA92
:100C20009059B9F1010F00DDB9460A9850EA4A001F
:100C30000ED044F61050A5F2FF3545432F14B8F1FD
:100C4000000F1ED07542291E1EDDC9F100021CE0F6
:100C5000B8F1010F4FF0000001D0302103E0F24362
:100C600005E02154401CB042FBDB3046002200214D
:100C700021540B99C1F80880C1E900200FB0BDE8EC
:100C8000F08FBD1B6D1CDEE74A4600DA694206A8FC
:100C900000F09CFA06AB93E8070003AB83E807007B
:100CA00050460A9900F096FB8DE80700A0F5005029
:100CB0001F3800900398002D0ADD42F21F014A46BA
:100CC0000844002303A90390684600F0FFFD09E0F3
:100CD000A0F500504A461F38002303A90390684638
:100CE00000F009FE8DE807000004000C03D04FF06F
:100CF000FF30410800E01046B8F1000F03D0002299
:100D0000009215461EE0751E05D4FFF7C9FE30326D
:100D100062556D1EF9D5B3460122084302D0002268
:100D20007F1C04E02078302801D100227F1E002A99
:100D3000099784D01DE0112D07DAFFF7B1FE30329C
:100D400062556D1C50EA0102F5D1084302D00098AB
:100D5000C8B10EE00021681E05E0235C625C6354AC
:100D60002254401E491C8142F7DBAB46A81B401EA3
:100D70000990002004F80B000B98099AC0F808802D
:100D8000C0E9002B7AE711264FF0000857E72DE95C
:100D9000F04F88460446D21D22F0070191B0D1E9F8
:100DA0000001CDE90A0102F047F902460B98C00F95
:100DB00001D02D2007E02068810701D52B2002E01B
:100DC000202101EAC000032A099001D0072A05DB8F
:100DD00003464146204600F0B9F90BE12078800631
:100DE00001D5E06900E00620B8F1650F814606D024
:100DF000B8F1660F18D0B8F1670F70D131E000205C
:100E0000B9F1110F009001DB112301E009F1010399
:100E10000AAA01A90CA8FFF7E2FEDDE90C70002682
:100E200009F10105834647E001204B4600904FF051
:100E300000470AAA01A90CA8FFF7D1FEDDE90DB011
:100E40000C995D46002610B909F101000D18B9EBA7
:100E5000050003D4C0F1FF3609F10105A5EB090037
:100E60002BE0B9F1010F01DA4FF001090020B9F1CF
:100E7000110F0090484601DD112300E003460AAA45
:100E800001A90CA8FFF7ABFEDDE90C704D4600266A
:100E90008346207800070AD4AB4500DA5D4601A8F6
:100EA000012D04DD411911F8011C302907D04F45EF
:100EB00002DA17F1040F04DA012082460FE06D1EFA
:100EC000EEE7002F02DCED1B3E4403E0781CA84255
:100ED00000DD7D1CB81B00F1010A4FF000472078AF
:100EE000000703D4AA4501DB4FF0FF3A0021B7F118
:100EF000004F0DF143088DF8431024D002202B231E
:100F0000002F01DA7F422D230A21021EA0F10100E9
:100F100000DC5FB197FBF1FC97FBF1F201FB1C7C5D
:100F200017460CF1300C08F801CDEEE7A8F10100EE
:100F300003702188090501D5452100E06521A0F154
:100F4000010800F8011C09980FA9A1EB0807FF1D73
:100F500000B10120411901EBEA70A1693844081A77
:100F6000401EA0612078C00602D42046FFF7C0FAD8
:100F7000099828B1D4E901219047206A401C2062D9
:100F80002078C00622D52046FFF7B2FA1EE0002ED8
:100F900004DBB34502DD01A8805D00E03020D4E928
:100FA00001219047206A401C2062761CAAF10100B2
:100FB0005FEA000A0AD100F0C5F8C0680168405C29
:100FC000D4E901219047206A401C2062281EA5F127
:100FD0000105DCDC07E0D4E9012118F8010B90479A
:100FE000206A401C2062381EA7F10107F3DC20466E
:100FF000FFF794FA032011B041E610B5436913B12D
:10100000AFF3008001E0FFF7ACFA012010BD1278C9
:1010100000F124010A7000224A700122EDE71168F4
:101020004FF0FF32E9E710B5436913B1AFF3008029
:1010300001E0FFF72DFB012010BD128800F1240113
:1010400082840022C2840122EDE711684FF0FF3252
:10105000E9E770B516460C46054600F06BF80368E4
:1010600093F80101012806D0FF2C0FD8185D68B154
:1010700001202C7070BDD3F807013246214603F2DF
:10108000071303442846BDE8704018474FF0FF306F
:1010900070BD002801D000F021B8704710B500F0F5
:1010A00029F9BDE81040FFF7F4BF000010B500219A
:1010B00002A000F006F9012010BD0000534947507E
:1010C00056464E3A20507572652076697274756185
:1010D0006C20666E2063616C6C65640001491820A9
:1010E000ABBEFEE72600020070477546FFF7BAFC6C
:1010F000AE4605006946534620F00700854618B005
:1011000020B5FFF7CDF8BDE820404FF000064FF0C6
:1011100000074FF000084FF0000B21F00701AC462C
:10112000ACE8C009ACE8C009ACE8C009ACE8C0094B
:101130008D46704710B500F005F8001D10BD00BFCA
:10114000B51F0000004870470C0100202DE9F04158
:101150001F46044603260168072A01F4006004DBE9
:1011600008B116A505E016A503E008B115A500E035
:1011700015A521F010002060A069C01EA0610FB16C
:10118000401EA0612046FFF7B3F94FB1D4E9012119
:1011900038469047206A401C2062C01C206206E04E
:1011A000206AFAE7D4E9012115F8010B9047761E71
:1011B000F8D22046FFF7B2F9BDE8F0814E414E006B
:1011C0006E616E00494E4600696E66002DE9F0477B
:1011D000814616468AB0354878440DC88DE80D0022
:1011E00032487844801C03AC0DC884E80D0041F6F9
:1011F0009B300844372190FBF1F290FBF1F5A5F10B
:10120000800501FB12041B3C02D56442012000E072
:101210000020DFF898A080460027FA44AAF1BE0A11
:101220000EE0E0070AD03246684607EB470101238B
:101230000AEB810100F05FFB8DE8070064107F1C62
:10124000002CEED1194F7F44AE3F19E0E80715D0CE
:1012500007EB04100DF1180A90E80E008AE80E0062
:10126000C068F04201D1981908903246012306A9BE
:1012700003A800F040FB03AB83E807006D10641C7B
:10128000002DE3D14FF0010332466946B8F1000F5B
:1012900003A802D000F01AFB01E000F02CFBC9E922
:1012A0000001C9F808200AB0BDE8F087202000003E
:1012B00010B50446AFF300802046BDE81040FEF7AD
:1012C000DABF70B505460C460A2000E06D1C00F040
:1012D00039F835B128780028F8D102E0641C00F014
:1012E00031F814B120780028F8D1BDE870400A2008
:1012F00000F028B810B5012805D0002103A0FFF7A1
:10130000E0FF012010BD09A1F8E700005349475252
:10131000544D454D3A204F7574206F6620686561C5
:1013200070206D656D6F7279000000003A2048658D
:101330006170206D656D6F727920636F7272757068
:101340007465640008B569468DF800000320ABBEE3
:1013500008BD00004FF0013C50F8042B51F8043B4D
:101360009A4221D1A2EB0C03934313EACC1317D179
:1013700050F8042B51F8043B9A4215D1A2EB0C0310
:10138000934313EACC130BD150F8042B51F8043BD0
:101390009A4209D1A2EB0C03934313EACC13DBD09E
:1013A0004FF00000704700BFD01A01BAB1FA81F1C6
:1013B00001F0180122FA01F0CB40C1F12001DBB2AB
:1013C000C0B2C01A2CFA01F3D11A914311EAC31129
:1013D000E6D170475FEA400C08BF91F0000F4FEA7A
:1013E0008C234FEAC12243EA51514FEA1C5018BFE7
:1013F00000F5F0404FEA300018BF41F000415FEACD
:101400006C5C00F02980BCF1FF3F08BF40F08040D9
:101410007047130C06BF12044FF0100C4FF0000C75
:10142000130E04BF12020CF1080C130F04BF1201BB
:101430000CF1040C930F04BF92000CF1020CD30FBB
:1014400004BF52000CF1010C11464FF00002A0F154
:101450001F00A0EB0C00704711F0004F08BF704751
:1014600031F000413FF4D5AF0B0C06BF09044FF03B
:10147000100C4FF0000C0B0E04BF09020CF1080C0D
:101480000B0F04BF09010CF1040C8B0F04BF890082
:101490000CF1020CCB0F04BF49000CF1010CCCF194
:1014A0002003A0EB0C0022FA03F302FA0CF241EA4B
:1014B000030100F10100704720F07F4C80EA030037
:1014C00023F07F47ACEB070303F57C5300F00040AB
:1014D00003F1FF032DE980494FEA154B09B44FEAA8
:1014E000144325EA0B4E24EA03480FF2042606EBC8
:1014F000132749083E785FEA320203FB0667C7F507
:10150000000707FB06F64FEA54374FEAD64606F1C6
:10151000020607FB066CCCF1005C4FEA1C472CEA84
:10152000074C07FB06F40CFB06F504EB15464FEAE7
:10153000961634BF00204FF000404FEAD13706FB2B
:1015400007FC4FEA1C4C0CFB0BF7D21B03FB0CF700
:1015500061EB07010CFB0EF7B0EB074072EB174293
:101560000CFB08F734BFA2EB0742B2EB074261EB7A
:1015700017414FEA0C444FEA910706FB07FC4FEA7C
:101580001C4C0CFB0BF7B0EBC74072EB573203FB64
:101590000CF734BFA2EBC742B2EBC74261EB573145
:1015A0000CFB0EF7B0EBC70072EB57720CFB08F7A1
:1015B00034BFA2EBC702B2EBC70261EB5771039FC6
:1015C0004FEA816141EA921104EBCC044FEAD13732
:1015D0004FEA826206FB07FC42EA90124FEA806003
:1015E0004FEA1C4C0CFB0BF7D21B03FB0CF761EB17
:1015F00007010CFB0EF7B0EB074072EB17420CFB38
:1016000008F734BFA2EB0742B2EB074261EB174188
:101610004FEA8C554FEA910704EB9C2406FB07FC2C
:101620004FEA1C4C0CFB0BF7B0EBC74072EB573288
:1016300003FB0CF734BFA2EBC742B2EBC74261EB2E
:1016400057310CFB0EF7B0EBC70072EB57720CFB77
:1016500008F734BFA2EBC702B2EBC70261EB5771C8
:1016600015EB4C254FEA816141EA92114FEA826203
:101670004FEAD13742EA901206FB07FC44F100041E
:101680004FEA80604FEA1C4C0CFB0BF7D21B03FBAC
:101690000CF761EB07010CFB0EF7B0EB074072EBA8
:1016A00017420CFB08F734BFA2EB0742B2EB07422C
:1016B00061EB174115EB1C154FEA813141EA92416C
:1016C0004FEA823242EA90424FEA80304FEA0C768B
:1016D00044F1000448EA03434EEA0B484FF0000E81
:1016E000B2EB080C71EB030724BF624639464EEBA0
:1016F0000E0E4FF0000B0018524149414BEB0B0B03
:10170000B2EB080C71EB03077BF1000B24BF6246C0
:1017100039464EEB0E0E4FF0000B00185241494176
:101720004BEB0B0BB2EB080C71EB03077BF1000BDF
:1017300024BF624639464EEB0E0E51EA020718BF2F
:1017400046F0010616EB0E7655F1000254F1000149
:1017500003D5BDE88901BDE80088BDE88901BDE881
:101760000048B619524141EB0101A3F10103704752
:1017700080807F7E7D7C7B7A7978777676757473CE
:10178000727171706F6E6E6D6C6C6B6A6A6968688D
:10179000676666656464636362616160605F5F5E23
:1017A0005E5D5D5C5C5B5B5A5A5959585857575699
:1017B00056555555545453535252525151505050FE
:1017C0004F4F4F4E4E4D4D4D4C4C4C4B4B4B4A4A50
:1017D0004A49494948484847474747464646454594
:1017E00045444444444343434342424242414141CD
:1017F000002B9C4630D477002BD01CB54FEA37071E
:1018000003B44FF010004FF01001BAF1000F06D0F2
:10181000BCF1000FDCBF40F0080040F008014FF0C1
:1018200000000FBCBDE810400BF1010BBBF1010F34
:1018300008BF5FEA170722BF12F1010211F101018F
:101840004FF0004143F1000300F0004043EA000084
:101850007047F9D35708D0E746EA064613F1400F20
:101860004FEA16461FDD13F1200FDFBF16430A466D
:10187000002120335B42BED0C3F1200746EA064672
:1018800002FA07F74FEA164646EA0706C3F12007B1
:1018900022FA03F201FA07F721FA03F14FF00003ED
:1018A00042EA0702A7E746EA020646EA06464FEA88
:1018B000164646EA0106BCBF46EA0646360C4FF01D
:1018C00000034FF000024FF0000194E72DE9804C37
:1018D0009A46934670B491E8380007C831EA400C44
:1018E00048BF34EA430C03D5FFF7E6FDFFF780FF5E
:1018F000F0BCBDE8008C2DE9804C9A46934670B44C
:1019000091E8380007C810F0804F08BF13F0804FEF
:1019100003D100F005F8FFF76BFFF0BCBDE8008CC9
:1019200020F07F4780EA030023F07F4C07EB0C0395
:10193000A3F57C5300F00040A3F1FE0392F0000FEA
:1019400000F0B38095F0000F00F077802DE9014999
:101950004FEA11404FEA144621EA004800FB06FC1A
:1019600024EA064708FB06F607FB08F800FB07F722
:1019700018EB06484CEB164C4FEA124B18EB074895
:101980004FEA15464CEB174022EA0B4E0BFB06FCC8
:1019900025EA06470EFB06F607FB0EFE0BFB07F7D4
:1019A0001EEB064E4CEB164C4FF000061EEB074E9E
:1019B0004CEB174B18EB0B0840F1000018EB0E0B2B
:1019C00058EB000840F100008F1A4FF000013CBFB7
:1019D000C943661B14BFB5EB040C00213CBFC943CF
:1019E000F61B4FEA17444EEA8E0E27EA04454FEAEB
:1019F0001C4704FB07622CEA074C05FB07F70CFBAE
:101A000005F604FB0CFC16EB074642EB174216EBFF
:101A10000C4642EB1C421BEB060658EB020241410E
:101A200046EA9E0601D5BDE80189B619524141EB4F
:101A30000101A3F10103BDE801894FEA14454FEA12
:101A4000114724EA054621EA074C05FB07F406FB8B
:101A500007F70CFB06F105FB0CFC11EB074144EB0F
:101A600017444FEA124711EB0C4144EB1C4422EAA5
:101A7000074C05FB07F206FB07F70CFB06F605FB18
:101A80000CFC16EB074642EB174216EB0C4642EBFA
:101A90001C456A1854F1000148BF7047B6195241FD
:101AA00041EB0101A3F10103704795F0000F37D01E
:101AB0004FEA11424FEA144721EA024624EA074C52
:101AC00002FB07F106FB07F70CFB06F402FB0CFC1C
:101AD00014EB074441EB17414FEA154714EB0C4454
:101AE00041EB1C4125EA074C02FB07F506FB07F713
:101AF0000CFB06F602FB0CFC16EB074645EB174504
:101B000016EB0C4645EB1C42121951F1000148BF7F
:101B10007047B619524141EB0101A3F1010370472F
:101B20004FEA14454FEA114724EA054621EA074CDB
:101B300005FB07F106FB07F70CFB06F24FF000066A
:101B400005FB0CFC12EB074241EB174112EB0C4278
:101B500051EB1C4148BF7047921841EB0101A3F1C2
:101B600001037047FEE70000014800F007B80000DD
:101B70009C000020704772B6FEE700002DE9F05F80
:101B8000C16B0A6801680B68046C4FF0040808FA1E
:101B900004F8844D844E854FDFF814C2DFF81492A8
:101BA000DFF814A2DFF814B2DFF814E218EA020F2B
:101BB00065D05FEA437862D50A68920603D40A6862
:101BC00022F004020A60DFF8F0814FF480620168BD
:101BD00008F1140813011402414524D9A9420DD07B
:101BE000B1420FD0B9421AD0614515D0494515D040
:101BF000514501D1120312E0594501D104220EE0F2
:101C0000714501D140220AE06D4D1435A94206D03C
:101C10006B4A2832914201D11A4600E022466749B8
:101C2000091F0A6029E0A94213D0B14215D0B94278
:101C300020D061451BD049451BD0514502D14FF4FE
:101C4000800217E0414502D14FF0806212E0594511
:101C500001D104220EE0714501D140220AE0584D25
:101C60001435A94206D0564A2832914201D11A466B
:101C700000E022464B4908394A60C16A71E04FF0E2
:101C8000020808FA04F818EA020F70D05FEA8378B5
:101C90006DD50A68920606D40A6822F00A020A6024
:101CA000012180F82110DFF810814FF400720168E3
:101CB00008F1140813011402414524D9A9420DD09A
:101CC000B1420FD0B9421AD0614515D0494515D05F
:101CD000514501D1120312E0594501D102220EE013
:101CE000714501D120220AE0354D1435A94206D0B4
:101CF000334A2832914201D11A4600E022462F4948
:101D0000091F0A6029E0A94213D0B14215D0B94297
:101D100020D061451BD049451BD0514502D14FF41D
:101D2000001217E0414502D14FF0007212E0594510
:101D300001D102220EE0714501D120220AE0204D9E
:101D40001435A94206D01E4A2832914201D11A46C2
:101D500000E02246134908394A60002180F820102B
:101D6000816A00291CD0BDE8F05F0847FFE708251D
:101D7000A540154214D01A0712D50A6822F00E02A7
:101D80000A6090F84020C36B012101FA02F25A6008
:101D9000816380F82110002180F82010016BE0E7BA
:101DA000BDE8F09F080002401C00024030000240E5
:101DB00044000240580002406C0002400804024007
:101DC0001C04024030B560B11A4B026814219A42DB
:101DD00009D2194B1344B3FBF1F18900016417498F
:101DE0000AE0012030BD134B5B421344B3FBF1F119
:101DF000890001640F490839C163022180F821106C
:101E0000136843F6F0718B43F0E901142143D0E9E4
:101E100002452C43214304692143446921438469D9
:101E20002143194311600021416301224277017768
:101E3000084630BD08040240F8FFFDBF0000024024
:101E40002DE9F84FDFF8C891002409F1040A0AF1DE
:101E5000040B23460F270BF1040ED1E00125A5400A
:101E600006EA0502AA4276D1DFF8A8C14E68A6EBC1
:101E70000C0866452BD00DDC032E34D005DC36B3C0
:101E8000012E19D0022E2FD11BE0112E16D0122EAA
:101E90002AD119E0B8F5881F19D006DCB8F5803FC3
:101EA00015D0B8F5801F1FD111E0B8F5001F0ED076
:101EB000B8F5041F18D10AE0CB6815E0CB681B1DEC
:101EC00012E0CB6808330FE0CB680C330CE08B6872
:101ED0002BB1012B4FF0080303D0456104E004232C
:101EE00002E0056100E00023FF2A01D8064601E078
:101EF00000F104064FEA840501D9A5F12005D6F8C2
:101F0000008007FA05FC28EA0C0803FA05F548EA00
:101F10000508C6F800804D68ED0070D53E4DAE69ED
:101F200046F00106AE61AD6924F0030605F0010537
:101F300000953A4D06EB050CDCF80850A607360F65
:101F400007FA06F825EA0805DFF8D480404503D1F2
:101F50004FF0000825E052E0DFF8C880404502D18C
:101F60004FF001081DE0DFF8C080404502D14FF07E
:101F7000020816E0DFF8B480404502D14FF00308B4
:101F80000FE0DFF8AC80404502D14FF0040808E0D4
:101F9000DFF8A080404502D14FF0050801E04FF086
:101FA000060808FA06F848EA0508CCF808804D68E3
:101FB000D9F80060ED034D4601D5164300E0964385
:101FC0002E604D68DAF80060AD03554601D5164322
:101FD00000E096432E604D68DBF80060ED025D4640
:101FE00001D5164300E096432E604D68DEF8006090
:101FF000AD02754601D5164300E096432E60641C81
:102000000A681646E2407FF429AFBDE8F88F000069
:1020100000040140000011100010024000000140C7
:1020200000080140000C0140001001400014014074
:1020300000180140001C01400AB101617047090409
:10204000FBE70000014880687047000000000020A6
:1020500002488168027811448160704700000020C6
:10206000074810B5016841F010010160032000F03D
:1020700075F8002000F006F800F024F8002010BDEC
:102080000020024070B50D4D04464FF47A71287857
:10209000B1FBF0F00A490968B1FBF0F000F0ECFA8E
:1020A00048B9102C07D200222146501E00F036F805
:1020B00000206C6070BD012070BD00000000002099
:1020C0000C0000200C4808B5816941F001018161D4
:1020D000816901F001010091C16941F08051C16144
:1020E000C06900F0805000900448416821F0E06130
:1020F00041F00071416008BD001002400000014045
:10210000002809DB00F01F020121914040098000F6
:1021100000F1E020C0F8001170470000F0B40E4B51
:102120001B680C46C3F30223C3F10705042D00D935
:102130000425191D072901D2002300E0DB1E01261A
:1021400006FA05F1491E214099409E40761E164030
:102150003143F0BC00F084BF0CED00E0064900F014
:10216000070208684FF6FF03184040EA0220034ABE
:1021700010430860704700000CED00E00000FA0515
:102180002DE9F0470F46050061D0434E306800F05E
:102190000700B84209D2306820F0070038433060A9
:1021A000306800F00700B84251D128683B4C8107E5
:1021B00012D5400703D5606840F4E060606028787D
:1021C000000703D5606840F4605060606068A968EB
:1021D00020F0F000084360602878C00728D06868C5
:1021E000012810D02168022810D0890700292EDA92
:1021F000616821F0030101436160FFF723FF80461E
:1022000041F288390DE021688903EFE78901EDE7A4
:10221000FFF718FFA0EB0801494502D90320BDE8EC
:10222000F0876068696800F00C00B0EB810FEFD1B7
:10223000306800F00700B8420BD9306820F0070082
:1022400038433060306800F00700B84201D0012008
:10225000E5E72878400705D56068E96820F4E06084
:10226000084360602878000706D56068296920F473
:10227000605040EAC100606000F038F86168084AC8
:10228000C1F30311515CC840064908600648006864
:10229000FFF7F8FE0020C2E70020024000100240D5
:1022A000243100080C0000200400002004480549E7
:1022B00000684968044AC1F30221515CC840704774
:1022C0000C00002000100240343100080448054989
:1022D00000684968044AC1F3C221515CC840704794
:1022E0000C000020001002403431000812A185B01B
:1022F0000FC98DE80F0014A0144A006804905168BB
:10230000134801F00C03042B10D0082B0ED1C1F39D
:102310008343C9031DF803000AD5516804AAC1F319
:102320004041515C0A4A5043B0FBF1F005B07047A0
:1023300008494843FAE700000203040506070809B4
:102340000A0B0C0D0E0F10100102000000100240CD
:1023500000127A0000093D002DE9F84F040070D00A
:102360002078C04DC00749D06868C0F381000128BB
:1023700007D06868C0F38100022809D16868C003EB
:1023800006D52868800339D560680028E7D035E095
:102390006068B0F5803F0BD010B1B0F5A02F11D020
:1023A000286820F480302860286820F4802002E02B
:1023B000286840F480302860606890B1FFF742FEE2
:1023C00006460AE0286840F480202860F0E700BF55
:1023D000FFF738FE801B642873D828688003F7D580
:1023E0000CE0FFF72FFE064605E000BFFFF72AFED0
:1023F000801B6428F0D828688003F7D420789A4E90
:1024000080074FF001094FF0000839D5686810F0D7
:102410000C0F07D06868C0F38100022809D16868F2
:10242000C00306D42868800714D52069012808D184
:1024300010E02069B0B1C6F80090FFF703FE074630
:1024400005E00AE1FFF7FEFDC01B0228C4D828689A
:102450008007F7D52868616920F0F80040EAC100DC
:1024600028600DE0C6F80080FFF7ECFD074604E0A9
:10247000FFF7E8FDC01B022823D828688007F7D49F
:10248000207800072CD57948A169D9B1C0F800900F
:10249000FFF7D8FD074604E0FFF7D4FDC01B022874
:1024A0000FD8686A8007F7D571484FF4FA51006871
:1024B000B0FBF1F0009000BF0098411E0091FAD2ED
:1024C0000EE080E0C0F80080FFF7BCFD074604E0A6
:1024D000FFF7B8FDC01B022875D8686A8007F7D4DB
:1024E0002078400760D5E8690027C00008D4E86973
:1024F00040F08050E861E869012700F080500090CA
:102500005C480168C90513D40168834641F48071B1
:102510000160FFF797FD824606E000BFFFF792FDDE
:10252000A0EB0A0064284ED8DBF80000C005F5D502
:10253000E06801280AD008B1052813D0286A20F0E5
:1025400001002862286A20F0040002E0286A40F0B6
:1025500001002862E06841F2883B98B1FFF772FD04
:1025600082460BE0286A40F004002862EEE700BFD4
:10257000FFF768FDA0EB0A0159455AD8286A800781
:10258000F6D50CE0FFF75EFD824605E0FFF75AFD49
:10259000A0EB0A0159454CD8286A8007F6D41FB130
:1025A000E86920F08050E861E06988B36968C1F3A8
:1025B0008101022944D00228C6F8608004D0FFF7C8
:1025C00041FD044638E034E0FFF73CFD074604E0F7
:1025D000FFF738FDC01B02282BD828688001F7D4EC
:1025E000206AB0F5803F05D16868A16820F400300A
:1025F00008436860D4E908010843696821F474114C
:1026000008436860C6F86090FFF71CFD044606E0CA
:1026100025E000BFFFF716FD001B022809D8286837
:102620008001F7D51BE000BFFFF70CFD001B02285F
:1026300002D90320BDE8F88F28688001F4D40EE0A9
:102640000128F7D06868226A00F48031914204D1F1
:10265000616A00F47010884201D00120EAE700208E
:10266000E8E70000001002400000424280044242BD
:102670000C0000200070004010B5401EB0F1807FBB
:1026800001D3012010BD4FF0E02460610F216017DD
:1026900000F0E6FC0020A06107202061002010BDB2
:1026A0007047704770B590F83C20012A2CD0012467
:1026B00080F83C40022280F83D2003685A689D68FB
:1026C00022F070060A6832435A60104B02689A4240
:1026D0000ED00F4B9A420BD0B2F1804F08D00D4B69
:1026E0009A4205D00C4B9A4202D00C4B9A4204D12C
:1026F000496825F080031943916080F83D4000212E
:1027000080F83C10084670BD022070BD002C0140CE
:10271000003401400004004000080040000C00406C
:1027200010B5040003D094F83D0010B107E001207B
:1027300010BD002084F83C00204600F01FF8022065
:1027400084F83D00211D206800F034FB012084F84E
:10275000460084F83E0084F83F0084F8400084F886
:10276000410084F8420084F8430084F8440084F86F
:10277000450084F83D00002010BD000008B5006849
:10278000B0F1804F12D10A48C16941F00101C16125
:10279000C069002200F00100009011461C20FFF7E4
:1027A000BDFCBDE808401C20FFF7AABC08BD000026
:1027B0000010024070B5044690F83C00012817D084
:1027C000012584F83C50022084F83D00206882688E
:1027D00022F0770222F47F4282600868502830D0CD
:1027E0000DDC20284DD005DC98B310283BD148E003
:1027F000022070BD302844D0402834D139E0602810
:1028000028D0702806D0B0F5805F2CD0B0F5005FDE
:1028100029D10AE0CB68D1E90121206800F010FB42
:102820002068816841F0770109E0CB68D1E9012196
:10283000206800F005FB2068816841F480418160D8
:1028400011E0CA684968206800F00CFB502120683C
:1028500007E016E0CA684968206800F014FB6021B0
:10286000206800F0F7FA84F83D50002084F83C001E
:1028700070BDCA684968206800F0F4FA40212068F9
:10288000EFE7226801461046EBE7704770B5044653
:10289000006801694FF00005C943890715D4C16874
:1028A000C943890711D4E91E0161012020772068FE
:1028B00080698007204602D0FFF7E7FF04E000F0C0
:1028C00098F8204600F096F8257720680169C943FA
:1028D000490717D4C168C943490713D46FF00401ED
:1028E0000161022020772068806910F4407F204633
:1028F00002D0FFF7CAFF04E000F07BF8204600F0AA
:1029000079F8257720680169C943090716D4C16899
:10291000C943090712D46FF0080101610420207730
:102920002068C0698007204602D0FFF7AEFF04E0B0
:1029300000F05FF8204600F05DF825772068016917
:10294000C943C90617D4C168C943C90613D46FF077
:1029500010010161082020772068C06910F4407FD1
:10296000204602D0FFF791FF04E000F042F8204635
:1029700000F040F8257720680169C943C90708D1EC
:10298000C168C943C90704D1891E0161204600F00E
:1029900032F820680169C943090609D4C168C943EE
:1029A000090605D46FF0800101612046FFF778FE2B
:1029B00020680169C943490609D4C168C943490669
:1029C00005D46FF040010161204600F015F8206841
:1029D0000169C94389060BD4C168C943890607D474
:1029E0006FF0200101612046BDE87040FFF759BE3D
:1029F00070BD704770477047704770B5040004D0D1
:102A000094F83D00002510B106E0012070BD84F867
:102A10003C50204600F022F8242084F83D00206835
:102A2000C16821F40051C160204600F03FFA2068DF
:102A3000016921F4904101612068416921F02A0176
:102A400041612068C16841F40051C16025642020C3
:102A500084F83D0084F83E00002070BD70B586B05B
:102A600000250646009501950295039500681E49CC
:102A7000884237D11D49886940F48040886188695F
:102A800000F480400490886940F0040088618869FF
:102A9000174C00F0040004904815009002200190AB
:102AA0000320039069462046FFF7CAF92015CDE9B7
:102AB0000005694620460295FFF7C2F90E4C0D4805
:102AC00020601020C4E901058020C4E90305656188
:102AD000A5612046E561FFF775F908B1FFF74BF8EE
:102AE0007463666206B070BD003801400010024099
:102AF00000080140440002409C0000202DE9F843FA
:102B0000044690F83D001F4616460D4620284CD13D
:102B1000C5B1BEB194F83C00012846D0012084F82C
:102B20003C004FF00008C4F84080212084F83D00AC
:102B3000FFF788FAA6848146E684A068B0F5805F36
:102B400003D004E00120BDE8F883206928B12E46B7
:102B50005FF0000584F83C800EE00026FAE7802153
:102B6000204600F0FFF9A0B9AEB116F8010B2168BC
:102B70004860E08C401EE084E08C4B464FF0000241
:102B800000970028EBD14FF04001204600F0EAF911
:102B900030B10320D7E735F8020BC0F30800E6E7B1
:102BA000202084F83D000020CDE70220CBE7FEE79F
:102BB000094808B5416941F00101416140690022BD
:102BC00000F00100009011460E20FFF7A7FABDE8C3
:102BD00008400E20FFF794BA00100240F0B585B00F
:102BE000002520480095019502950395816941F0E3
:102BF00020018161816901F020010491816941F026
:102C000004018161816901F004010491816941F04D
:102C1000100181618069144F00F010004FF480763C
:102C20000490002231463846FFF706FA0124CDE928
:102C30000045694638460294FFF702F94FF44070A8
:102C4000CDE90005694602940848FFF7F9F802202B
:102C5000CDE90240CDE9006469463846FFF7F0F857
:102C600005B0F0BD00100240000801400010014016
:102C700010B586B000241648009401940294039481
:102C800004944FF08041059401604721C0E901148C
:102C900040F2E731C0E903148461FFF741FD08B158
:102CA000FEF769FF4FF48050009069460848FFF72F
:102CB00081FD08B1FEF75FFF049404A90448059460
:102CC000FFF7F0FC002801D0FEF755FF06B010BD5D
:102CD000100000200C4810B50A4901604FF4E131A2
:102CE0004160002181600C22C160C0E90412816151
:102CF000C161FFF782FE002803D0BDE81040FEF757
:102D00003ABF10BD003801405800002010B505A1A1
:102D1000074800F05AF90122BDE8104011020548A9
:102D2000FFF78AB93E3E2053746172740D0A0000A9
:102D3000E000002000080140FEE7FEE7FEE77047E4
:102D40007047FFF785B930B58FB028216846FDF789
:102D500040FB14210AA8FDF73CFB01210804CDE942
:102D600000100024029402250491CDE907504FF48D
:102D7000E01009906846FFF7EFFA08B172B6FEE777
:102D80000F20CDE90A054FF48060CDE90C40022107
:102D90000AA80E94FFF7F4F9002801D072B6FEE7F6
:102DA0000FB030BD704700000148FFF76FBD000055
:102DB00010000020F0B502681C4B1D4D1D4E1E4F2B
:102DC0001E4C4FF0804C984209D0A04207D060457D
:102DD00005D0A84203D0B04201D0B84204D122F0BD
:102DE000700E4A6842EA0E02984209D0A04207D00B
:102DF000604505D0A84203D0B04201D0B84203D10B
:102E000022F44075CA682A434D6922F080022A43A1
:102E100002608A68C2620A688262984201D0A04257
:102E200001D10969016301214161F0BD002C01401C
:102E30000004004000080040000C00400034014045
:102E400010B5846842EA032224F47F440A432243F3
:102E5000826010BD826822F070020A4342F00701CE
:102E60008160704710B5036A046A24F001040462AB
:102E7000846924F0F00444EA021423F00A020A43AD
:102E80008461026210BD10B5036A23F0100303626F
:102E90008369046A23F4704343EA023224F0A003F6
:102EA00043EA01118261016210BD000070B5044661
:102EB00000680169E26821F4405111430161216910
:102EC000A0680843616908432168CA6841F20C633D
:102ED0009A430243CA6020684169A26921F44071A3
:102EE000114341611E492068884202D1FFF7EEF983
:102EF00001E0FFF7DBF900EBC00101EB00126068B5
:102F000064218000B2FBF0F3B3FBF1F36FF018061D
:102F10007343B2FBF0F5B2FBF0F605EB8305322309
:102F200003EB0515B5FBF1F5B6FBF1F605F0F00581
:102F300005EB0615B2FBF0F6B2FBF0F0B0FBF1F0DA
:102F40006FF01802504306EB800003EB0010B0FB5B
:102F5000F1F0216800F00F002844886070BD000087
:102F6000003801402DE9F041984617460E460446C8
:102F7000069D1DE0681C1BD02DB1FFF763F8A0EB88
:102F80000800A84214D92068C16821F4D071C1603A
:102F90002068416921F001014161202084F83D0051
:102FA00084F83E00002084F83C000320BDE8F08156
:102FB0002068006836EA000004D00020B842D9D06A
:102FC0000020F3E70120F9E7FEE70FB470B50546EE
:102FD0004068FDF777F9040014D006AA0599FDF7BB
:102FE000C7F906462046FDF7D5F90246286821466E
:102FF0000368284698472046FDF793F9304670BC91
:103000005DF814FB0120FAE702490160802141606C
:10301000704700001C32000892B28068FF23FFF75F
:103020006DBD000000B50A46FFF7EEFF0149826062
:10303000016000BD28320008490050EAC12018BFD5
:1030400004204A0D18BF40F0010040F2FF72B2EBBD
:10305000515F08BF40F00200012808BF05207047FB
:103060000907090E002804DB00F1E02080F80014B5
:10307000704700F00F0000F1E02080F8141D704749
:103080000020FDF7E7BC000001490248FFF7CABF76
:1030900058000020E000002030380A2801D201202A
:1030A000704700207047FEF7DBFFFFF74CFEFFF78D
:1030B00095FDFFF77DFDFFF70DFEFFF7D9FDFFF74B
:1030C00025FEFFF739FEFCE710B500290AD0087885
:1030D000002807D005487844FEF73CF9002801D0C5
:1030E000002010BD0248784410BD000076010000A9
:1030F0006E01000010B500290AD00878002807D01A
:1031000005487844FEF726F9002801D0002010BDBC
:103110000248784410BD0000660100005E01000016
:10312000FDF735BE000000000000000001020304AE
:103130000607080900000000010203040000000067
:1031400000000000303132333435363738394142EF
:1031500043444546403058003031323334353637F9
:1031600038396162636465664030780004000008A5
:10317000000000000000000200010000100000003C
:1031800002400000000000A0000000000540000018
:10319000000000C8000000000C4000000000409C3F
:1031A00000000000194000000020BCBE000000002C
:1031B00034400000BFC91B8E00000004B540000071
:1031C000504BCFD06607E2CF010000006C410000F9
:1031D0003E8251AADFEEA73401000000D942000070
:1031E000DCB5A0E23A301F97FFFFFFFFB4450000B7
:1031F000FD25A0C8E9A3C14FFFFFFFFFFF3F00006F
:103200000000008000000000FF3F00000000008080
:1032100000000000000000000000000081300008F5
:103220000000000000000000193000087C33000896
:1032300000000020100000006C0100088C33000822
:103240001000002040070000880100081C0000005A
:1032500043000000F8FFFFFF0C0000000E0000001C
:103260000F0000002E0000001001000043000000CD
:10327000F8FFFFFF00404040404040404040414197
:10328000414141404040404040404040404040403B
:1032900040404040400502020202020202020202D5
:1032A00002020202022020202020202020202002D2
:1032B0000202020202029090909090901010101062
:1032C00010101010101010101010101010101010FE
:1032D0000202020202028888888888880808080892
:1032E000080808080808080808080808080808085E
:1032F0000202020240000000000000000000000086
:1033000000000000000000000000000000000000BD
:1033100000000000000000000000000000000000AD
:10332000000000000000000000000000000000009D
:10333000000000000000000000000000000000008D
:10334000000000000000000000000000000000007D
:10335000000000000000000000000000000000006D
:10336000000000000000000000000000000000005D
:10337000000000000000000011FDFFFF0100000040
:0C33800010000000000000000024F40019
:0400000508000131BD
:00000001FF
